{
  "contractName": "coinflip",
  "abi": [
    {
      "anonymous": false,
      "inputs": [
        {
          "indexed": false,
          "internalType": "uint256",
          "name": "_amountDeposited",
          "type": "uint256"
        }
      ],
      "name": "depositDone",
      "type": "event"
    },
    {
      "anonymous": false,
      "inputs": [
        {
          "indexed": false,
          "internalType": "address",
          "name": "_LoserAddress",
          "type": "address"
        },
        {
          "indexed": false,
          "internalType": "uint256",
          "name": "_amountLost",
          "type": "uint256"
        }
      ],
      "name": "loser",
      "type": "event"
    },
    {
      "anonymous": false,
      "inputs": [
        {
          "indexed": false,
          "internalType": "address",
          "name": "_Newaddress",
          "type": "address"
        },
        {
          "indexed": false,
          "internalType": "address",
          "name": "_ByWhoAddress",
          "type": "address"
        }
      ],
      "name": "wAddressChanged",
      "type": "event"
    },
    {
      "anonymous": false,
      "inputs": [
        {
          "indexed": false,
          "internalType": "address",
          "name": "_winnerAddress",
          "type": "address"
        },
        {
          "indexed": false,
          "internalType": "uint256",
          "name": "_prizeWon",
          "type": "uint256"
        }
      ],
      "name": "winner",
      "type": "event"
    },
    {
      "constant": true,
      "inputs": [],
      "name": "owner",
      "outputs": [
        {
          "internalType": "address",
          "name": "",
          "type": "address"
        }
      ],
      "payable": false,
      "stateMutability": "view",
      "type": "function"
    },
    {
      "constant": false,
      "inputs": [],
      "name": "deposit",
      "outputs": [],
      "payable": true,
      "stateMutability": "payable",
      "type": "function"
    },
    {
      "constant": true,
      "inputs": [],
      "name": "getBalance",
      "outputs": [
        {
          "internalType": "uint256",
          "name": "",
          "type": "uint256"
        }
      ],
      "payable": false,
      "stateMutability": "view",
      "type": "function"
    },
    {
      "constant": true,
      "inputs": [],
      "name": "getWithdrawalAddress",
      "outputs": [
        {
          "internalType": "address",
          "name": "",
          "type": "address"
        }
      ],
      "payable": false,
      "stateMutability": "view",
      "type": "function"
    },
    {
      "constant": false,
      "inputs": [
        {
          "internalType": "uint256",
          "name": "_randomNumber",
          "type": "uint256"
        },
        {
          "internalType": "string",
          "name": "_bet",
          "type": "string"
        }
      ],
      "name": "tossCoin",
      "outputs": [
        {
          "internalType": "string",
          "name": "",
          "type": "string"
        }
      ],
      "payable": true,
      "stateMutability": "payable",
      "type": "function"
    },
    {
      "constant": false,
      "inputs": [
        {
          "internalType": "address payable",
          "name": "_owner",
          "type": "address"
        }
      ],
      "name": "setWAddress",
      "outputs": [
        {
          "internalType": "address",
          "name": "",
          "type": "address"
        }
      ],
      "payable": false,
      "stateMutability": "nonpayable",
      "type": "function"
    },
    {
      "constant": false,
      "inputs": [
        {
          "internalType": "uint256",
          "name": "_amount",
          "type": "uint256"
        }
      ],
      "name": "Withdraw",
      "outputs": [],
      "payable": false,
      "stateMutability": "nonpayable",
      "type": "function"
    }
  ],
  "bytecode": "0x6080604052336000806101000a81548173ffffffffffffffffffffffffffffffffffffffff021916908373ffffffffffffffffffffffffffffffffffffffff160217905550610ad6806100536000396000f3fe6080604052600436106100705760003560e01c8063bd4ccd9c1161004e578063bd4ccd9c14610132578063d0e30db014610270578063ec8f3fa51461027a578063ecea2633146102d157610070565b806312065fe0146100755780635b6b431d146100a05780638da5cb5b146100db575b600080fd5b34801561008157600080fd5b5061008a610362565b6040518082815260200191505060405180910390f35b3480156100ac57600080fd5b506100d9600480360360208110156100c357600080fd5b81019080803590602001909291905050506103da565b005b3480156100e757600080fd5b506100f061052c565b604051808273ffffffffffffffffffffffffffffffffffffffff1673ffffffffffffffffffffffffffffffffffffffff16815260200191505060405180910390f35b6101f56004803603604081101561014857600080fd5b81019080803590602001909291908035906020019064010000000081111561016f57600080fd5b82018360208201111561018157600080fd5b803590602001918460018302840111640100000000831117156101a357600080fd5b91908080601f016020809104026020016040519081016040528093929190818152602001838380828437600081840152601f19601f820116905080830192505050505050509192919290505050610551565b6040518080602001828103825283818151815260200191508051906020019080838360005b8381101561023557808201518184015260208101905061021a565b50505050905090810190601f1680156102625780820380516001836020036101000a031916815260200191505b509250505060405180910390f35b610278610863565b005b34801561028657600080fd5b5061028f61089c565b604051808273ffffffffffffffffffffffffffffffffffffffff1673ffffffffffffffffffffffffffffffffffffffff16815260200191505060405180910390f35b3480156102dd57600080fd5b50610320600480360360208110156102f457600080fd5b81019080803573ffffffffffffffffffffffffffffffffffffffff16906020019092919050505061091f565b604051808273ffffffffffffffffffffffffffffffffffffffff1673ffffffffffffffffffffffffffffffffffffffff16815260200191505060405180910390f35b60008060009054906101000a900473ffffffffffffffffffffffffffffffffffffffff1673ffffffffffffffffffffffffffffffffffffffff163373ffffffffffffffffffffffffffffffffffffffff16146103bd57600080fd5b3073ffffffffffffffffffffffffffffffffffffffff1631905090565b6000809054906101000a900473ffffffffffffffffffffffffffffffffffffffff1673ffffffffffffffffffffffffffffffffffffffff163373ffffffffffffffffffffffffffffffffffffffff161461043357600080fd5b803073ffffffffffffffffffffffffffffffffffffffff163110156104c0576040517f08c379a00000000000000000000000000000000000000000000000000000000081526004018080602001828103825260108152602001807f4e6f7420656e6f7567682066756e64730000000000000000000000000000000081525060200191505060405180910390fd5b600160009054906101000a900473ffffffffffffffffffffffffffffffffffffffff1673ffffffffffffffffffffffffffffffffffffffff166108fc829081150290604051600060405180830381858888f19350505050158015610528573d6000803e3d6000fd5b5050565b6000809054906101000a900473ffffffffffffffffffffffffffffffffffffffff1681565b60603073ffffffffffffffffffffffffffffffffffffffff163134106105c2576040517f08c379a0000000000000000000000000000000000000000000000000000000008152600401808060200182810382526025815260200180610a7d6025913960400191505060405180910390fd5b606060003460020290506001851415610612576040518060400160405280600581526020017f4865616473000000000000000000000000000000000000000000000000000000815250915061064b565b6040518060400160405280600581526020017f5461696c7300000000000000000000000000000000000000000000000000000081525091505b836040516020018082805190602001908083835b60208310610682578051825260208201915060208101905060208303925061065f565b6001836020036101000a03801982511681845116808217855250505050505090500191505060405160208183030381529060405280519060200120826040516020018082805190602001908083835b602083106106f457805182526020820191506020810190506020830392506106d1565b6001836020036101000a0380198251168184511680821785525050505050509050019150506040516020818303038152906040528051906020012014156107ec573373ffffffffffffffffffffffffffffffffffffffff166108fc829081150290604051600060405180830381858888f1935050505015801561077b573d6000803e3d6000fd5b507fe9390f9b7a2aab3a9a43cbeb84b542fcc6b3611505affcd3b13c14b73a5cd1063382604051808373ffffffffffffffffffffffffffffffffffffffff1673ffffffffffffffffffffffffffffffffffffffff1681526020018281526020019250505060405180910390a1610858565b7fd6e871ff8ffd5882a2da020033100138d4c68b158b33bf8403c2376906e1e7bd3334604051808373ffffffffffffffffffffffffffffffffffffffff1673ffffffffffffffffffffffffffffffffffffffff1681526020018281526020019250505060405180910390a15b819250505092915050565b7f14a39dedd0fa58396e09fe355c275ae2e4431a426a73a822193c1dd219bc2f99346040518082815260200191505060405180910390a1565b60008060009054906101000a900473ffffffffffffffffffffffffffffffffffffffff1673ffffffffffffffffffffffffffffffffffffffff163373ffffffffffffffffffffffffffffffffffffffff16146108f757600080fd5b600160009054906101000a900473ffffffffffffffffffffffffffffffffffffffff16905090565b60008060009054906101000a900473ffffffffffffffffffffffffffffffffffffffff1673ffffffffffffffffffffffffffffffffffffffff163373ffffffffffffffffffffffffffffffffffffffff161461097a57600080fd5b81600160006101000a81548173ffffffffffffffffffffffffffffffffffffffff021916908373ffffffffffffffffffffffffffffffffffffffff1602179055507f1e2bf7dff9215043bbdb884d8ea9f1c61379594f7c05024bcfe1529744c700dd8233604051808373ffffffffffffffffffffffffffffffffffffffff1673ffffffffffffffffffffffffffffffffffffffff1681526020018273ffffffffffffffffffffffffffffffffffffffff1673ffffffffffffffffffffffffffffffffffffffff1681526020019250505060405180910390a1600160009054906101000a900473ffffffffffffffffffffffffffffffffffffffff16905091905056fe4e6f2068617920666f6e646f7320737566696369656e746573207061726120706167617221a265627a7a723158201d1e5671dc9f7175dd36ad833353fa83952787319f21d04631b4b0868a70cb4064736f6c634300050c0032",
  "source": "import \"./Ownable.sol\";\n\n\n\npragma solidity 0.5.12;\n\n\n\n\ncontract coinflip is Ownable{\n\n    address payable WithdrawalAddress;\n    \n\n    event wAddressChanged(address _Newaddress, address _ByWhoAddress);\n    event depositDone(uint _amountDeposited);\n    event winner(address _winnerAddress, uint _prizeWon); //indexed\n    event loser(address _LoserAddress, uint _amountLost);\n    \n\n    function deposit() public payable{\n        emit depositDone(msg.value);\n    }\n    \n    function getBalance() public view onlyOwner returns(uint){\n        return address(this).balance;\n    } \n\n    function getWithdrawalAddress() public view onlyOwner returns(address){\n        return WithdrawalAddress;\n    } \n\n    function tossCoin(uint256 _randomNumber, string memory _bet /*,address payable randomAddress*/) public payable returns(string memory){\n       \n        require(msg.value < address(this).balance, \"No hay fondos suficientes para pagar!\");\n        \n        //send gas to random.sol \n        // randomAddress.transfer(500000 wei);    \n        string memory result;\n        uint prize = 2*msg.value;\n\n        if(_randomNumber == 1){\n            result = \"Heads\";\n        } else {\n            result = \"Tails\";\n        \n        }\n        \n        if(keccak256(abi.encodePacked(result)) == keccak256(abi.encodePacked(_bet))){\n            msg.sender.transfer(prize);\n            emit winner(msg.sender, prize);\n\t    \n        } else {\n            emit loser(msg.sender, msg.value);\n\t    \n        }\n\n       \t\n       return result; \n    }\n   \n    // pseudo random function.\n\n    /*\n    function randomFunction() private view returns(uint) {\n        uint rand = uint(keccak256(abi.encodePacked(now)));\n        return rand % 2;\n                \n    }\n    */\n\n    function setWAddress(address payable _owner) public onlyOwner returns(address){\n        WithdrawalAddress = _owner;\n        emit wAddressChanged(_owner, msg.sender);\n        return WithdrawalAddress;\n    }\n\n    function Withdraw(uint _amount) public onlyOwner{\n        require(address(this).balance >= _amount, \"Not enough funds\");\n        WithdrawalAddress.transfer(_amount);\n\n    }\n    \n    \n\n\n}\n\n",
  "sourcePath": "/home/frank/ethadvanced/coinflip/contracts/coinf.sol",
  "compiler": {
    "name": "solc",
    "version": "0.5.12+commit.7709ece9.Emscripten.clang"
  },
  "schemaVersion": "3.0.16",
  "updatedAt": "2021-02-16T16:37:24.164Z",
  "devdoc": {
    "methods": {}
  },
  "userdoc": {
    "methods": {}
  }
}