{
  "contractName": "UsingRandomNumber",
  "abi": [
    {
      "inputs": [],
      "payable": false,
      "stateMutability": "nonpayable",
      "type": "constructor"
    },
    {
      "anonymous": false,
      "inputs": [
        {
          "indexed": false,
          "internalType": "string",
          "name": "description",
          "type": "string"
        }
      ],
      "name": "callbackError",
      "type": "event"
    },
    {
      "anonymous": false,
      "inputs": [
        {
          "indexed": false,
          "internalType": "string",
          "name": "description",
          "type": "string"
        }
      ],
      "name": "newQuery",
      "type": "event"
    },
    {
      "anonymous": false,
      "inputs": [
        {
          "indexed": false,
          "internalType": "uint256",
          "name": "newNumber",
          "type": "uint256"
        }
      ],
      "name": "newRandomNumber",
      "type": "event"
    },
    {
      "constant": true,
      "inputs": [
        {
          "internalType": "address",
          "name": "",
          "type": "address"
        }
      ],
      "name": "TxOwner",
      "outputs": [
        {
          "internalType": "bytes32",
          "name": "",
          "type": "bytes32"
        }
      ],
      "payable": false,
      "stateMutability": "view",
      "type": "function"
    },
    {
      "constant": true,
      "inputs": [],
      "name": "lastNumber",
      "outputs": [
        {
          "internalType": "uint256",
          "name": "",
          "type": "uint256"
        }
      ],
      "payable": false,
      "stateMutability": "view",
      "type": "function"
    },
    {
      "constant": true,
      "inputs": [
        {
          "internalType": "address",
          "name": "",
          "type": "address"
        }
      ],
      "name": "whoseNumber",
      "outputs": [
        {
          "internalType": "uint256",
          "name": "",
          "type": "uint256"
        }
      ],
      "payable": false,
      "stateMutability": "view",
      "type": "function"
    },
    {
      "constant": false,
      "inputs": [],
      "name": "deposit",
      "outputs": [],
      "payable": true,
      "stateMutability": "payable",
      "type": "function"
    },
    {
      "constant": false,
      "inputs": [
        {
          "internalType": "bytes32",
          "name": "_myid",
          "type": "bytes32"
        },
        {
          "internalType": "string",
          "name": "_result",
          "type": "string"
        }
      ],
      "name": "__callback",
      "outputs": [],
      "payable": false,
      "stateMutability": "nonpayable",
      "type": "function"
    },
    {
      "constant": false,
      "inputs": [
        {
          "internalType": "bytes32",
          "name": "_id",
          "type": "bytes32"
        },
        {
          "internalType": "string",
          "name": "result",
          "type": "string"
        },
        {
          "internalType": "bytes",
          "name": "proof",
          "type": "bytes"
        }
      ],
      "name": "__callback",
      "outputs": [],
      "payable": false,
      "stateMutability": "nonpayable",
      "type": "function"
    },
    {
      "constant": false,
      "inputs": [],
      "name": "update",
      "outputs": [],
      "payable": true,
      "stateMutability": "payable",
      "type": "function"
    }
  ],
  "bytecode": "0x60806040526000600555600160065562030d406007553480156200002257600080fd5b5062000038603060f81b6200003e60201b60201c565b62000a5f565b600073ffffffffffffffffffffffffffffffffffffffff16600160009054906101000a900473ffffffffffffffffffffffffffffffffffffffff1673ffffffffffffffffffffffffffffffffffffffff161480620000ce57506000620000cc600160009054906101000a900473ffffffffffffffffffffffffffffffffffffffff16620003a160201b60201c565b145b15620000e857620000e66000620003ac60201b60201c565b505b600160009054906101000a900473ffffffffffffffffffffffffffffffffffffffff1673ffffffffffffffffffffffffffffffffffffffff166338cc48316040518163ffffffff1660e01b8152600401602060405180830381600087803b1580156200015357600080fd5b505af115801562000168573d6000803e3d6000fd5b505050506040513d60208110156200017f57600080fd5b810190808051906020019092919050505073ffffffffffffffffffffffffffffffffffffffff166000809054906101000a900473ffffffffffffffffffffffffffffffffffffffff1673ffffffffffffffffffffffffffffffffffffffff1614620002cc57600160009054906101000a900473ffffffffffffffffffffffffffffffffffffffff1673ffffffffffffffffffffffffffffffffffffffff166338cc48316040518163ffffffff1660e01b8152600401602060405180830381600087803b1580156200024f57600080fd5b505af115801562000264573d6000803e3d6000fd5b505050506040513d60208110156200027b57600080fd5b81019080805190602001909291905050506000806101000a81548173ffffffffffffffffffffffffffffffffffffffff021916908373ffffffffffffffffffffffffffffffffffffffff1602179055505b6000809054906101000a900473ffffffffffffffffffffffffffffffffffffffff1673ffffffffffffffffffffffffffffffffffffffff1663688dcfd7826040518263ffffffff1660e01b815260040180827effffffffffffffffffffffffffffffffffffffffffffffffffffffffffffff19167effffffffffffffffffffffffffffffffffffffffffffffffffffffffffffff19168152602001915050600060405180830381600087803b1580156200038557600080fd5b505af11580156200039a573d6000803e3d6000fd5b5050505050565b6000813b9050919050565b6000620003be620003c560201b60201c565b9050919050565b600080620003ed731d3b2638a7cc9f2cb3d298a3da7a90b67e5506ed620003a160201b60201c565b11156200049957731d3b2638a7cc9f2cb3d298a3da7a90b67e5506ed600160006101000a81548173ffffffffffffffffffffffffffffffffffffffff021916908373ffffffffffffffffffffffffffffffffffffffff1602179055506200048f6040518060400160405280600b81526020017f6574685f6d61696e6e65740000000000000000000000000000000000000000008152506200099460201b60201c565b6001905062000991565b6000620004c073c03a2615d5efaf5f49f60b7bb6583eaec212fdf1620003a160201b60201c565b11156200056c5773c03a2615d5efaf5f49f60b7bb6583eaec212fdf1600160006101000a81548173ffffffffffffffffffffffffffffffffffffffff021916908373ffffffffffffffffffffffffffffffffffffffff160217905550620005626040518060400160405280600c81526020017f6574685f726f707374656e3300000000000000000000000000000000000000008152506200099460201b60201c565b6001905062000991565b60006200059373b7a07bcf2ba2f2703b24c0691b5278999c59ac7e620003a160201b60201c565b11156200063f5773b7a07bcf2ba2f2703b24c0691b5278999c59ac7e600160006101000a81548173ffffffffffffffffffffffffffffffffffffffff021916908373ffffffffffffffffffffffffffffffffffffffff160217905550620006356040518060400160405280600981526020017f6574685f6b6f76616e00000000000000000000000000000000000000000000008152506200099460201b60201c565b6001905062000991565b60006200066673146500cfd35b22e4a392fe0adc06de1a1368ed48620003a160201b60201c565b1115620007125773146500cfd35b22e4a392fe0adc06de1a1368ed48600160006101000a81548173ffffffffffffffffffffffffffffffffffffffff021916908373ffffffffffffffffffffffffffffffffffffffff160217905550620007086040518060400160405280600b81526020017f6574685f72696e6b6562790000000000000000000000000000000000000000008152506200099460201b60201c565b6001905062000991565b60006200073973a2998efd205fb9d4b4963afb70778d6354ad3a41620003a160201b60201c565b1115620007e55773a2998efd205fb9d4b4963afb70778d6354ad3a41600160006101000a81548173ffffffffffffffffffffffffffffffffffffffff021916908373ffffffffffffffffffffffffffffffffffffffff160217905550620007db6040518060400160405280600a81526020017f6574685f676f65726c69000000000000000000000000000000000000000000008152506200099460201b60201c565b6001905062000991565b60006200080c736f485c8bf6fc43ea212e93bbf8ce046c7f1cb475620003a160201b60201c565b11156200087257736f485c8bf6fc43ea212e93bbf8ce046c7f1cb475600160006101000a81548173ffffffffffffffffffffffffffffffffffffffff021916908373ffffffffffffffffffffffffffffffffffffffff1602179055506001905062000991565b6000620008997320e12a1f859b3feae5fb2a0a32c18f5a65555bbf620003a160201b60201c565b1115620008ff577320e12a1f859b3feae5fb2a0a32c18f5a65555bbf600160006101000a81548173ffffffffffffffffffffffffffffffffffffffff021916908373ffffffffffffffffffffffffffffffffffffffff1602179055506001905062000991565b6000620009267351efaf4c8b3c9afbd5ab9f4bbc82784ab6ef8faa620003a160201b60201c565b11156200098c577351efaf4c8b3c9afbd5ab9f4bbc82784ab6ef8faa600160006101000a81548173ffffffffffffffffffffffffffffffffffffffff021916908373ffffffffffffffffffffffffffffffffffffffff1602179055506001905062000991565b600090505b90565b8060029080519060200190620009ac929190620009b0565b5050565b828054600181600116156101000203166002900490600052602060002090601f016020900481019282601f10620009f357805160ff191683800117855562000a24565b8280016001018555821562000a24579182015b8281111562000a2357825182559160200191906001019062000a06565b5b50905062000a33919062000a37565b5090565b62000a5c91905b8082111562000a5857600081600090555060010162000a3e565b5090565b90565b6137028062000a6f6000396000f3fe6080604052600436106100705760003560e01c8063a2e620451161004e578063a2e6204514610315578063b3db9f1a1461031f578063d0e30db01461034a578063d9380a8a1461035457610070565b806327dc297e1461007557806338bbfa5014610147578063480d8b9c146102b0575b600080fd5b34801561008157600080fd5b506101456004803603604081101561009857600080fd5b8101908080359060200190929190803590602001906401000000008111156100bf57600080fd5b8201836020820111156100d157600080fd5b803590602001918460018302840111640100000000831117156100f357600080fd5b91908080601f016020809104026020016040519081016040528093929190818152602001838380828437600081840152601f19601f8201169050808301925050505050505091929192905050506103b9565b005b34801561015357600080fd5b506102ae6004803603606081101561016a57600080fd5b81019080803590602001909291908035906020019064010000000081111561019157600080fd5b8201836020820111156101a357600080fd5b803590602001918460018302840111640100000000831117156101c557600080fd5b91908080601f016020809104026020016040519081016040528093929190818152602001838380828437600081840152601f19601f8201169050808301925050505050505091929192908035906020019064010000000081111561022857600080fd5b82018360208201111561023a57600080fd5b8035906020019184600183028401116401000000008311171561025c57600080fd5b91908080601f016020809104026020016040519081016040528093929190818152602001838380828437600081840152601f19601f8201169050808301925050505050505091929192905050506103fc565b005b3480156102bc57600080fd5b506102ff600480360360208110156102d357600080fd5b81019080803573ffffffffffffffffffffffffffffffffffffffff169060200190929190505050610662565b6040518082815260200191505060405180910390f35b61031d61067a565b005b34801561032b57600080fd5b5061033461076a565b6040518082815260200191505060405180910390f35b610352610770565b005b34801561036057600080fd5b506103a36004803603602081101561037757600080fd5b81019080803573ffffffffffffffffffffffffffffffffffffffff169060200190929190505050610772565b6040518082815260200191505060405180910390f35b6103f8828260006040519080825280601f01601f1916602001820160405280156103f25781602001600182028038833980820191505090505b506103fc565b5050565b600115156009600085815260200190815260200160002060009054906101000a900460ff161515148015610462575061043361078a565b73ffffffffffffffffffffffffffffffffffffffff163373ffffffffffffffffffffffffffffffffffffffff16145b6104d4576040517f08c379a00000000000000000000000000000000000000000000000000000000081526004018080602001828103825260198152602001807f7468697320697320616e6f74686572207573657227732069640000000000000081525060200191505060405180910390fd5b60006104e1848484610aa7565b60ff1614156106115760006002836040516020018082805190602001908083835b602083106105255780518252602082019150602081019050602083039250610502565b6001836020036101000a0380198251168184511680821785525050505050509050019150506040516020818303038152906040528051906020012060001c8161056a57fe5b06905080600b60003373ffffffffffffffffffffffffffffffffffffffff1673ffffffffffffffffffffffffffffffffffffffff168152602001908152602001600020819055507f6690229c1bd05f7f25622d8d848c2f73f47874f9a57aedd2f054a6f8cee46e20816040518082815260200191505060405180910390a16009600085815260200190815260200160002060006101000a81549060ff02191690555061065d565b7fd207434ca499d95b2df740b72aca2b745994169aa4ae960863e16097b2901b4a60405180806020018281038252602181526020018061366d6021913960400191505060405180910390a15b505050565b600a6020528060005260406000206000915090505481565b7f7d7a39c6b63ca576de74f16163d0852e04317c1a0187562e85ec43d18b009ed660405180806020018281038252601a8152602001807f41204e657720717565727920686173206265656e2073656e742100000000000081525060200191505060405180910390a160006106f5600554600654600754610bd7565b905060016009600083815260200190815260200160002060006101000a81548160ff02191690831515021790555080600a60003373ffffffffffffffffffffffffffffffffffffffff1673ffffffffffffffffffffffffffffffffffffffff1681526020019081526020016000208190555050565b60085481565b565b600b6020528060005260406000206000915090505481565b60008073ffffffffffffffffffffffffffffffffffffffff16600160009054906101000a900473ffffffffffffffffffffffffffffffffffffffff1673ffffffffffffffffffffffffffffffffffffffff16148061081257506000610810600160009054906101000a900473ffffffffffffffffffffffffffffffffffffffff16611172565b145b1561082357610821600061117d565b505b600160009054906101000a900473ffffffffffffffffffffffffffffffffffffffff1673ffffffffffffffffffffffffffffffffffffffff166338cc48316040518163ffffffff1660e01b8152600401602060405180830381600087803b15801561088d57600080fd5b505af11580156108a1573d6000803e3d6000fd5b505050506040513d60208110156108b757600080fd5b810190808051906020019092919050505073ffffffffffffffffffffffffffffffffffffffff166000809054906101000a900473ffffffffffffffffffffffffffffffffffffffff1673ffffffffffffffffffffffffffffffffffffffff1614610a0057600160009054906101000a900473ffffffffffffffffffffffffffffffffffffffff1673ffffffffffffffffffffffffffffffffffffffff166338cc48316040518163ffffffff1660e01b8152600401602060405180830381600087803b15801561098557600080fd5b505af1158015610999573d6000803e3d6000fd5b505050506040513d60208110156109af57600080fd5b81019080805190602001909291905050506000806101000a81548173ffffffffffffffffffffffffffffffffffffffff021916908373ffffffffffffffffffffffffffffffffffffffff1602179055505b6000809054906101000a900473ffffffffffffffffffffffffffffffffffffffff1673ffffffffffffffffffffffffffffffffffffffff1663c281d19e6040518163ffffffff1660e01b815260040160206040518083038186803b158015610a6757600080fd5b505afa158015610a7b573d6000803e3d6000fd5b505050506040513d6020811015610a9157600080fd5b8101908080519060200190929190505050905090565b60007f4c0000000000000000000000000000000000000000000000000000000000000082600081518110610ad757fe5b602001015160f81c60f81b7effffffffffffffffffffffffffffffffffffffffffffffffffffffffffffff1916141580610b6a57507f500000000000000000000000000000000000000000000000000000000000000082600181518110610b3a57fe5b602001015160f81c60f81b7effffffffffffffffffffffffffffffffffffffffffffffffffffffffffffff191614155b80610b965750600160ff1682600281518110610b8257fe5b602001015160f81c60f81b60f81c60ff1614155b15610ba45760019050610bd0565b6000610bb9838686610bb461118e565b611230565b905080610bca576002915050610bd0565b60009150505b9392505050565b60008083118015610be9575060208311155b610bf257600080fd5b600a84029350606060016040519080825280601f01601f191660200182016040528015610c2e5781602001600182028038833980820191505090505b5090508360f81b81600081518110610c4257fe5b60200101907effffffffffffffffffffffffffffffffffffffffffffffffffffffffffffff1916908160001a905350606060206040519080825280601f01601f191660200182016040528015610ca75781602001600182028038833980820191505090505b509050606060206040519080825280601f01601f191660200182016040528015610ce05781602001600182028038833980820191505090505b5090506000610ced6118db565b905060208352424118600143034018602084015260208252806020830152606060206040519080825280601f01601f191660200182016040528015610d415781602001600182028038833980820191505090505b509050886020820152606060086040519080825280601f01601f191660200182016040528015610d805781602001600182028038833980820191505090505b509050610d938260186008846000611bf8565b50610d9c613586565b60405180608001604052808781526020018881526020018681526020018481525090506000610e016040518060400160405280600681526020017f72616e646f6d0000000000000000000000000000000000000000000000000000815250838c611c57565b9050606060086040519080825280601f01601f191660200182016040528015610e395781602001600182028038833980820191505090505b50905060208401517f0100000000000000000000000000000000000000000000000000000000000000810460278301537e01000000000000000000000000000000000000000000000000000000000000810460268301537d010000000000000000000000000000000000000000000000000000000000810460258301537c0100000000000000000000000000000000000000000000000000000000810460248301537b01000000000000000000000000000000000000000000000000000000810460238301537a01000000000000000000000000000000000000000000000000000081046022830153790100000000000000000000000000000000000000000000000000810460218301537801000000000000000000000000000000000000000000000000810460208301535061115f828285600160048110610f7857fe5b6020020151600287600060048110610f8c57fe5b60200201516040518082805190602001908083835b60208310610fc45780518252602082019150602081019050602083039250610fa1565b6001836020036101000a038019825116818451168082178552505050505050905001915050602060405180830381855afa158015611006573d6000803e3d6000fd5b5050506040513d602081101561101b57600080fd5b81019080805190602001909291905050508760026004811061103957fe5b60200201516040516020018085805190602001908083835b602083106110745780518252602082019150602081019050602083039250611051565b6001836020036101000a03801982511681845116808217855250505050505090500184805190602001908083835b602083106110c557805182526020820191506020810190506020830392506110a2565b6001836020036101000a03801982511681845116808217855250505050505090500183815260200182805190602001908083835b6020831061111c57805182526020820191506020810190506020830392506110f9565b6001836020036101000a03801982511681845116808217855250505050505090500194505050505060405160208183030381529060405280519060200120611fc4565b8199505050505050505050509392505050565b6000813b9050919050565b6000611187611fe0565b9050919050565b606060028054600181600116156101000203166002900480601f0160208091040260200160405190810160405280929190818152602001828054600181600116156101000203166002900480156112265780601f106111fb57610100808354040283529160200191611226565b820191906000526020600020905b81548152906001019060200180831161120957829003601f168201915b5050505050905090565b600080602060028760458151811061124457fe5b602001015160f81c60f81b60f81c60ff1601604401019050606060206040519080825280601f01601f1916602001820160405280156112925781602001600182028038833980820191505090505b5090506112a487836020846000611bf8565b50600284876040516020018083805190602001908083835b602083106112df57805182526020820191506020810190506020830392506112bc565b6001836020036101000a038019825116818451168082178552505050505050905001828152602001925050506040516020818303038152906040526040518082805190602001908083835b6020831061134d578051825260208201915060208101905060208303925061132a565b6001836020036101000a038019825116818451168082178552505050505050905001915050602060405180830381855afa15801561138f573d6000803e3d6000fd5b5050506040513d60208110156113a457600080fd5b810190808051906020019092919050505060405160200180828152602001915050604051602081830303815290604052805190602001208180519060200120146113f3576000925050506118d3565b6060600288600160498601018151811061140957fe5b602001015160f81c60f81b60f81c60ff16016040519080825280601f01601f19166020018201604052801561144d5781602001600182028038833980820191505090505b50905061146288604985018351846000611bf8565b5061152d6002826040518082805190602001908083835b6020831061149c5780518252602082019150602081019050602083039250611479565b6001836020036101000a038019825116818451168082178552505050505050905001915050602060405180830381855afa1580156114de573d6000803e3d6000fd5b5050506040513d60208110156114f357600080fd5b8101908080519060200190929190505050878a600860208801018151811061151757fe5b602001015160f81c60f81b60f81c60ff16612537565b61153d57600093505050506118d3565b606060296040519080825280601f01601f1916602001820160405280156115735781602001600182028038833980820191505090505b50905061158889602086016029846000611bf8565b506060604080519080825280601f01601f1916602001820160405280156115be5781602001600182028038833980820191505090505b50905060006041845160296020890101010190506115e48b604083036040856000611bf8565b5060006002836040518082805190602001908083835b6020831061161d57805182526020820191506020810190506020830392506115fa565b6001836020036101000a038019825116818451168082178552505050505050905001915050602060405180830381855afa15801561165f573d6000803e3d6000fd5b5050506040513d602081101561167457600080fd5b8101908080519060200190929190505050905083816040516020018083805190602001908083835b602083106116bf578051825260208201915060208101905060208303925061169c565b6001836020036101000a0380198251168184511680821785525050505050509050018281526020019250505060405160208183030381529060405280519060200120600360008d815260200190815260200160002054141561173757600360008c815260200190815260200160002060009055611747565b60009750505050505050506118d3565b606060496040519080825280601f01601f19166020018201604052801561177d5781602001600182028038833980820191505090505b50905061178f8d896049846000611bf8565b506118386002826040518082805190602001908083835b602083106117c957805182526020820191506020810190506020830392506117a6565b6001836020036101000a038019825116818451168082178552505050505050905001915050602060405180830381855afa15801561180b573d6000803e3d6000fd5b5050506040513d602081101561182057600080fd5b810190808051906020019092919050505087866125e7565b61184d576000985050505050505050506118d3565b6004600083815260200190815260200160002060009054906101000a900460ff166118a75761187c8d846127a5565b6004600084815260200190815260200160002060006101000a81548160ff0219169083151502179055505b6004600083815260200190815260200160002060009054906101000a900460ff16985050505050505050505b949350505050565b60008073ffffffffffffffffffffffffffffffffffffffff16600160009054906101000a900473ffffffffffffffffffffffffffffffffffffffff1673ffffffffffffffffffffffffffffffffffffffff16148061196357506000611961600160009054906101000a900473ffffffffffffffffffffffffffffffffffffffff16611172565b145b1561197457611972600061117d565b505b600160009054906101000a900473ffffffffffffffffffffffffffffffffffffffff1673ffffffffffffffffffffffffffffffffffffffff166338cc48316040518163ffffffff1660e01b8152600401602060405180830381600087803b1580156119de57600080fd5b505af11580156119f2573d6000803e3d6000fd5b505050506040513d6020811015611a0857600080fd5b810190808051906020019092919050505073ffffffffffffffffffffffffffffffffffffffff166000809054906101000a900473ffffffffffffffffffffffffffffffffffffffff1673ffffffffffffffffffffffffffffffffffffffff1614611b5157600160009054906101000a900473ffffffffffffffffffffffffffffffffffffffff1673ffffffffffffffffffffffffffffffffffffffff166338cc48316040518163ffffffff1660e01b8152600401602060405180830381600087803b158015611ad657600080fd5b505af1158015611aea573d6000803e3d6000fd5b505050506040513d6020811015611b0057600080fd5b81019080805190602001909291905050506000806101000a81548173ffffffffffffffffffffffffffffffffffffffff021916908373ffffffffffffffffffffffffffffffffffffffff1602179055505b6000809054906101000a900473ffffffffffffffffffffffffffffffffffffffff1673ffffffffffffffffffffffffffffffffffffffff1663abaa5f3e6040518163ffffffff1660e01b815260040160206040518083038186803b158015611bb857600080fd5b505afa158015611bcc573d6000803e3d6000fd5b505050506040513d6020811015611be257600080fd5b8101908080519060200190929190505050905090565b6060600082850190508084511015611c0f57600080fd5b600086602001905060008460200190505b868860200101821015611c485781890151808288015250602082019150602081019050611c20565b85935050505095945050505050565b60008073ffffffffffffffffffffffffffffffffffffffff16600160009054906101000a900473ffffffffffffffffffffffffffffffffffffffff1673ffffffffffffffffffffffffffffffffffffffff161480611cdf57506000611cdd600160009054906101000a900473ffffffffffffffffffffffffffffffffffffffff16611172565b145b15611cf057611cee600061117d565b505b600160009054906101000a900473ffffffffffffffffffffffffffffffffffffffff1673ffffffffffffffffffffffffffffffffffffffff166338cc48316040518163ffffffff1660e01b8152600401602060405180830381600087803b158015611d5a57600080fd5b505af1158015611d6e573d6000803e3d6000fd5b505050506040513d6020811015611d8457600080fd5b810190808051906020019092919050505073ffffffffffffffffffffffffffffffffffffffff166000809054906101000a900473ffffffffffffffffffffffffffffffffffffffff1673ffffffffffffffffffffffffffffffffffffffff1614611ecd57600160009054906101000a900473ffffffffffffffffffffffffffffffffffffffff1673ffffffffffffffffffffffffffffffffffffffff166338cc48316040518163ffffffff1660e01b8152600401602060405180830381600087803b158015611e5257600080fd5b505af1158015611e66573d6000803e3d6000fd5b505050506040513d6020811015611e7c57600080fd5b81019080805190602001909291905050506000806101000a81548173ffffffffffffffffffffffffffffffffffffffff021916908373ffffffffffffffffffffffffffffffffffffffff1602179055505b60606004604051908082528060200260200182016040528015611f0457816020015b6060815260200190600190039081611eef5790505b50905083600060048110611f1457fe5b602002015181600081518110611f2657fe5b602002602001018190525083600160048110611f3e57fe5b602002015181600181518110611f5057fe5b602002602001018190525083600260048110611f6857fe5b602002015181600281518110611f7a57fe5b602002602001018190525083600360048110611f9257fe5b602002015181600381518110611fa457fe5b6020026020010181905250611fba858285612bbd565b9150509392505050565b8060036000848152602001908152602001600020819055505050565b600080612000731d3b2638a7cc9f2cb3d298a3da7a90b67e5506ed611172565b11156120a257731d3b2638a7cc9f2cb3d298a3da7a90b67e5506ed600160006101000a81548173ffffffffffffffffffffffffffffffffffffffff021916908373ffffffffffffffffffffffffffffffffffffffff1602179055506120996040518060400160405280600b81526020017f6574685f6d61696e6e657400000000000000000000000000000000000000000081525061311f565b60019050612534565b60006120c173c03a2615d5efaf5f49f60b7bb6583eaec212fdf1611172565b11156121635773c03a2615d5efaf5f49f60b7bb6583eaec212fdf1600160006101000a81548173ffffffffffffffffffffffffffffffffffffffff021916908373ffffffffffffffffffffffffffffffffffffffff16021790555061215a6040518060400160405280600c81526020017f6574685f726f707374656e33000000000000000000000000000000000000000081525061311f565b60019050612534565b600061218273b7a07bcf2ba2f2703b24c0691b5278999c59ac7e611172565b11156122245773b7a07bcf2ba2f2703b24c0691b5278999c59ac7e600160006101000a81548173ffffffffffffffffffffffffffffffffffffffff021916908373ffffffffffffffffffffffffffffffffffffffff16021790555061221b6040518060400160405280600981526020017f6574685f6b6f76616e000000000000000000000000000000000000000000000081525061311f565b60019050612534565b600061224373146500cfd35b22e4a392fe0adc06de1a1368ed48611172565b11156122e55773146500cfd35b22e4a392fe0adc06de1a1368ed48600160006101000a81548173ffffffffffffffffffffffffffffffffffffffff021916908373ffffffffffffffffffffffffffffffffffffffff1602179055506122dc6040518060400160405280600b81526020017f6574685f72696e6b65627900000000000000000000000000000000000000000081525061311f565b60019050612534565b600061230473a2998efd205fb9d4b4963afb70778d6354ad3a41611172565b11156123a65773a2998efd205fb9d4b4963afb70778d6354ad3a41600160006101000a81548173ffffffffffffffffffffffffffffffffffffffff021916908373ffffffffffffffffffffffffffffffffffffffff16021790555061239d6040518060400160405280600a81526020017f6574685f676f65726c690000000000000000000000000000000000000000000081525061311f565b60019050612534565b60006123c5736f485c8bf6fc43ea212e93bbf8ce046c7f1cb475611172565b111561242957736f485c8bf6fc43ea212e93bbf8ce046c7f1cb475600160006101000a81548173ffffffffffffffffffffffffffffffffffffffff021916908373ffffffffffffffffffffffffffffffffffffffff16021790555060019050612534565b60006124487320e12a1f859b3feae5fb2a0a32c18f5a65555bbf611172565b11156124ac577320e12a1f859b3feae5fb2a0a32c18f5a65555bbf600160006101000a81548173ffffffffffffffffffffffffffffffffffffffff021916908373ffffffffffffffffffffffffffffffffffffffff16021790555060019050612534565b60006124cb7351efaf4c8b3c9afbd5ab9f4bbc82784ab6ef8faa611172565b111561252f577351efaf4c8b3c9afbd5ab9f4bbc82784ab6ef8faa600160006101000a81548173ffffffffffffffffffffffffffffffffffffffff021916908373ffffffffffffffffffffffffffffffffffffffff16021790555060019050612534565b600090505b90565b600080600190508284511461254b57600080fd5b60008090505b838110156125db5784818151811061256557fe5b602001015160f81c60f81b7effffffffffffffffffffffffffffffffffffffffffffffffffffffffffffff191686826020811061259e57fe5b1a60f81b7effffffffffffffffffffffffffffffffffffffffffffffffffffffffffffff1916146125ce57600091505b8080600101915050612551565b50809150509392505050565b6000806000806000606060206040519080825280601f01601f1916602001820160405280156126255781602001600182028038833980820191505090505b509050600060208960038151811061263957fe5b602001015160f81c60f81b60f81c60ff1603600401905061265f89826020856000611bf8565b9150606060206040519080825280601f01601f1916602001820160405280156126975781602001600182028038833980820191505090505b5090506022820191506126d38a60208c60018603815181106126b557fe5b602001015160f81c60f81b60f81c60ff160384016020846000611bf8565b905060208301519450602081015193506126f08b601b8787613139565b80975081985050508573ffffffffffffffffffffffffffffffffffffffff16898051906020012060001c73ffffffffffffffffffffffffffffffffffffffff16141561274657600197505050505050505061279e565b6127538b601c8787613139565b80975081985050508573ffffffffffffffffffffffffffffffffffffffff16898051906020012060001c73ffffffffffffffffffffffffffffffffffffffff16149750505050505050505b9392505050565b600080606060028560018601815181106127bb57fe5b602001015160f81c60f81b60f81c60ff16016040519080825280601f01601f1916602001820160405280156127ff5781602001600182028038833980820191505090505b50905061281185858351846000611bf8565b506060604080519080825280601f01601f1916602001820160405280156128475781602001600182028038833980820191505090505b50905061285a8660046040846000611bf8565b50606060626040519080825280601f01601f1916602001820160405280156128915781602001600182028038833980820191505090505b509050600160f81b816000815181106128a657fe5b60200101907effffffffffffffffffffffffffffffffffffffffffffffffffffffffffffff1916908160001a9053506128e787604188036041846001611bf8565b5060606040518060400160405280602081526020017ffd94fa71bc0ba10d39d464d0d8f465efeef0a2764e3887fcc9df41ded20f505c81525090506129328160006020856042611bf8565b506129db6002836040518082805190602001908083835b6020831061296c5780518252602082019150602081019050602083039250612949565b6001836020036101000a038019825116818451168082178552505050505050905001915050602060405180830381855afa1580156129ae573d6000803e3d6000fd5b5050506040513d60208110156129c357600080fd5b810190808051906020019092919050505085856125e7565b9450846129f057600095505050505050612bb7565b606060405180606001604052806040815260200161368e604091399050606060426040519080825280601f01601f191660200182016040528015612a435781602001600182028038833980820191505090505b50905060fe60f81b81600081518110612a5857fe5b60200101907effffffffffffffffffffffffffffffffffffffffffffffffffffffffffffff1916908160001a905350612a978a60036041846001611bf8565b50606060028b604581518110612aa957fe5b602001015160f81c60f81b60f81c60ff16016040519080825280601f01601f191660200182016040528015612aed5781602001600182028038833980820191505090505b509050612b008b60448351846000611bf8565b50612ba96002836040518082805190602001908083835b60208310612b3a5780518252602082019150602081019050602083039250612b17565b6001836020036101000a038019825116818451168082178552505050505050905001915050602060405180830381855afa158015612b7c573d6000803e3d6000fd5b5050506040513d6020811015612b9157600080fd5b810190808051906020019092919050505082856125e7565b975087985050505050505050505b92915050565b60008073ffffffffffffffffffffffffffffffffffffffff16600160009054906101000a900473ffffffffffffffffffffffffffffffffffffffff1673ffffffffffffffffffffffffffffffffffffffff161480612c4557506000612c43600160009054906101000a900473ffffffffffffffffffffffffffffffffffffffff16611172565b145b15612c5657612c54600061117d565b505b600160009054906101000a900473ffffffffffffffffffffffffffffffffffffffff1673ffffffffffffffffffffffffffffffffffffffff166338cc48316040518163ffffffff1660e01b8152600401602060405180830381600087803b158015612cc057600080fd5b505af1158015612cd4573d6000803e3d6000fd5b505050506040513d6020811015612cea57600080fd5b810190808051906020019092919050505073ffffffffffffffffffffffffffffffffffffffff166000809054906101000a900473ffffffffffffffffffffffffffffffffffffffff1673ffffffffffffffffffffffffffffffffffffffff1614612e3357600160009054906101000a900473ffffffffffffffffffffffffffffffffffffffff1673ffffffffffffffffffffffffffffffffffffffff166338cc48316040518163ffffffff1660e01b8152600401602060405180830381600087803b158015612db857600080fd5b505af1158015612dcc573d6000803e3d6000fd5b505050506040513d6020811015612de257600080fd5b81019080805190602001909291905050506000806101000a81548173ffffffffffffffffffffffffffffffffffffffff021916908373ffffffffffffffffffffffffffffffffffffffff1602179055505b60008060009054906101000a900473ffffffffffffffffffffffffffffffffffffffff1673ffffffffffffffffffffffffffffffffffffffff16632ef3accc86856040518363ffffffff1660e01b81526004018080602001838152602001828103825284818151815260200191508051906020019080838360005b83811015612ec9578082015181840152602081019050612eae565b50505050905090810190601f168015612ef65780820380516001836020036101000a031916815260200191505b509350505050602060405180830381600087803b158015612f1657600080fd5b505af1158015612f2a573d6000803e3d6000fd5b505050506040513d6020811015612f4057600080fd5b81019080805190602001909291905050509050823a02670de0b6b3a764000001811115612f73576000801b915050613118565b6060612f7e8561317d565b90506000809054906101000a900473ffffffffffffffffffffffffffffffffffffffff1673ffffffffffffffffffffffffffffffffffffffff1663c55c1cb68360008985896040518663ffffffff1660e01b8152600401808581526020018060200180602001848152602001838103835286818151815260200191508051906020019080838360005b83811015613022578082015181840152602081019050613007565b50505050905090810190601f16801561304f5780820380516001836020036101000a031916815260200191505b50838103825285818151815260200191508051906020019080838360005b8381101561308857808201518184015260208101905061306d565b50505050905090810190601f1680156130b55780820380516001836020036101000a031916815260200191505b5096505050505050506020604051808303818588803b1580156130d757600080fd5b505af11580156130eb573d6000803e3d6000fd5b50505050506040513d602081101561310257600080fd5b8101908080519060200190929190505050925050505b9392505050565b80600290805190602001906131359291906135ad565b5050565b60008060008060405188815287602082015286604082015285606082015260208160808360006001610bb8f192508051915050818193509350505094509492505050565b60606131876131fd565b61318f61362d565b61319b81610400613209565b6131a481613253565b60008090505b83518110156131e6576131d98482815181106131c257fe5b60200260200101518361326190919063ffffffff16565b80806001019150506131aa565b506131f081613286565b8060000151915050919050565b60405180590338823950565b600081905060006020828161321a57fe5b0614613233576020818161322a57fe5b06602003810190505b808360200181815250506040518084526000815281810160405250505050565b61325e816004613294565b50565b61326e82600283516132b5565b61328181836133f590919063ffffffff16565b505050565b613291816007613294565b50565b6132b1601f60058360ff16901b17836134a090919063ffffffff16565b5050565b601781116132e1576132dc8160058460ff16901b60ff1617846134a090919063ffffffff16565b6133f0565b60ff811161332257613306601860058460ff16901b17846134a090919063ffffffff16565b61331c816001856134e09092919063ffffffff16565b506133ef565b61ffff811161336457613348601960058460ff16901b17846134a090919063ffffffff16565b61335e816002856134e09092919063ffffffff16565b506133ee565b63ffffffff81116133a85761338c601a60058460ff16901b17846134a090919063ffffffff16565b6133a2816004856134e09092919063ffffffff16565b506133ed565b67ffffffffffffffff81116133ec576133d4601b60058460ff16901b17846134a090919063ffffffff16565b6133ea816008856134e09092919063ffffffff16565b505b5b5b5b5b505050565b6133fd61362d565b8260200151836000015151835101111561342d5761342c83600261342686602001518651613547565b02613563565b5b60008060008451905085518051602081830101945086518101825260208701935050505b602081106134745781518352602083019250602082019150602081039050613451565b60006001826020036101000a039050801983511681855116818117865250508694505050505092915050565b816020015160018360000151510111156134c6576134c5826002846020015102613563565b5b815180516020818301018381536001820183525050505050565b6134e861362d565b8360200151846000015151830111156135165761351584600261350f876020015186613547565b02613563565b5b60006001836101000a0390508451805184818301018684198251161781528582018352505050849150509392505050565b6000818311156135595782905061355d565b8190505b92915050565b6060826000015190506135768383613209565b61358083826133f5565b50505050565b60405180608001604052806004905b60608152602001906001900390816135955790505090565b828054600181600116156101000203166002900490600052602060002090601f016020900481019282601f106135ee57805160ff191683800117855561361c565b8280016001018555821561361c579182015b8281111561361b578251825591602001919060010190613600565b5b5090506136299190613647565b5090565b604051806040016040528060608152602001600081525090565b61366991905b8082111561366557600081600090555060010161364d565b5090565b9056fe74686572652077617320616e206572726f722077697468207468652070726f6f667fb956469c5c9b89840d55b43537e66a98dd4811ea0a27224272c2e5622911e8537a2f8e86a46baec82864e98dd01e9ccc2f8bc5dfc9cbe5a91a290498dd96e4a265627a7a72315820e6d2fb64c33aa87c3348fefe0047832d085df0c82b356f8827a3f6959919078864736f6c634300050c0032",
  "source": "import \"./provableAPI_0.5.sol\";\n\npragma solidity 0.5.12;\n\ncontract UsingRandomNumber is usingProvable{\n\n//Query inputs\n\nuint256 delay_query = 0;\nuint256 number_of_bytes = 1;\nuint256 gas_limit = 200000;\n\n//Variables&Events\n\nuint256 public lastNumber;\n\n\nevent newQuery(string description);\nevent newRandomNumber(uint256 newNumber);\nevent callbackError(string description);\n\n\nmapping(bytes32 => bool) ValidsIds;\nmapping(address => bytes32) public TxOwner;\nmapping(address => uint256) public whoseNumber;\n\n\nconstructor() public{\n    provable_setProof(proofType_Ledger);\n}\n\nfunction deposit() public payable {}\n\nfunction __callback(bytes32 _id, string memory result, bytes memory proof) public {\n    require(ValidsIds[_id] == true && msg.sender == provable_cbAddress(), \"this is another user's id\"); \n    if(provable_randomDS_proofVerify__returnCode(_id, result, proof) ==0){\n        uint256 NroRnd = uint256(keccak256(abi.encodePacked(result))) %2;\n        whoseNumber[msg.sender] = NroRnd;\n        emit newRandomNumber(NroRnd);\n        delete ValidsIds[_id];\n        } else {\n            emit callbackError(\"there was an error with the proof\");\n        }\n}    \n\nfunction update() public payable{\n    emit newQuery(\"A New query has been sent!\");\n    bytes32 id = provable_newRandomDSQuery(delay_query,number_of_bytes,gas_limit);\n    ValidsIds[id] = true;\n    TxOwner[msg.sender] = id;\n    }\n}\n",
  "sourcePath": "/home/frank/ethadvanced/coinflip/contracts/random.sol",
  "compiler": {
    "name": "solc",
    "version": "0.5.12+commit.7709ece9.Emscripten.clang"
  },
  "schemaVersion": "3.0.16",
  "updatedAt": "2021-02-16T16:37:59.358Z",
  "devdoc": {
    "methods": {
      "__callback(bytes32,string)": {
        "details": "The following `__callback` functions are just placeholders ideally     meant to be defined in child contract when proofs are used.     The function bodies simply silence compiler warnings."
      }
    }
  },
  "userdoc": {
    "methods": {}
  }
}